{
  "contractName": "DappToken",
  "abi": [
    {
      "inputs": [],
      "payable": false,
      "stateMutability": "nonpayable",
      "type": "constructor"
    },
    {
      "constant": true,
      "inputs": [],
      "name": "totalSupply",
      "outputs": [
        {
          "internalType": "uint256",
          "name": "",
          "type": "uint256"
        }
      ],
      "payable": false,
      "stateMutability": "view",
      "type": "function"
    }
  ],
  "bytecode": "0x6080604052348015600f57600080fd5b50620186a06000819055506084806100286000396000f3fe6080604052348015600f57600080fd5b506004361060285760003560e01c806318160ddd14602d575b600080fd5b60336049565b6040518082815260200191505060405180910390f35b6000548156fea265627a7a723158201de9f7a12743c0939222732a2b360ad0ec260391fb7e1285fc140b55edb7050564736f6c63430005100032",
  "source": "pragma solidity ^0.5.0;\r\n\r\ncontract DappToken {\r\n    // Constructor\r\n    // Set the total number of tokens\r\n    // Read teh total number of tokens\r\n    uint256 public totalSupply;\r\n\r\n    constructor() public {\r\n        totalSupply = 100000;\r\n    }\r\n}",
  "sourcePath": "C:/Users/sam/Desktop/apps/eth/token_sale/contracts/DappToken.sol",
  "compiler": {
    "name": "solc",
    "version": "0.5.16+commit.9c3226ce.Emscripten.clang"
  },
  "schemaVersion": "3.3.4",
  "updatedAt": "2021-04-03T15:36:58.203Z",
  "networkType": "ethereum",
  "devdoc": {
    "methods": {}
  },
  "userdoc": {
    "methods": {}
  }
}